{
  "_format": "hh-sol-artifact-1",
  "contractName": "PredictionMarket",
  "sourceName": "contracts/PredictionMarket.sol",
  "abi": [
    {
      "inputs": [],
      "stateMutability": "nonpayable",
      "type": "constructor"
    },
    {
      "inputs": [
        {
          "internalType": "address",
          "name": "owner",
          "type": "address"
        }
      ],
      "name": "OwnableInvalidOwner",
      "type": "error"
    },
    {
      "inputs": [
        {
          "internalType": "address",
          "name": "account",
          "type": "address"
        }
      ],
      "name": "OwnableUnauthorizedAccount",
      "type": "error"
    },
    {
      "inputs": [],
      "name": "ReentrancyGuardReentrantCall",
      "type": "error"
    },
    {
      "anonymous": false,
      "inputs": [
        {
          "indexed": true,
          "internalType": "uint256",
          "name": "marketId",
          "type": "uint256"
        },
        {
          "indexed": true,
          "internalType": "address",
          "name": "user",
          "type": "address"
        },
        {
          "indexed": false,
          "internalType": "uint256",
          "name": "timestamp",
          "type": "uint256"
        }
      ],
      "name": "BetPlaced",
      "type": "event"
    },
    {
      "anonymous": false,
      "inputs": [
        {
          "indexed": true,
          "internalType": "uint256",
          "name": "marketId",
          "type": "uint256"
        },
        {
          "indexed": false,
          "internalType": "string",
          "name": "question",
          "type": "string"
        },
        {
          "indexed": false,
          "internalType": "uint256",
          "name": "endTime",
          "type": "uint256"
        },
        {
          "indexed": true,
          "internalType": "address",
          "name": "creator",
          "type": "address"
        }
      ],
      "name": "MarketCreated",
      "type": "event"
    },
    {
      "anonymous": false,
      "inputs": [
        {
          "indexed": true,
          "internalType": "uint256",
          "name": "marketId",
          "type": "uint256"
        },
        {
          "indexed": false,
          "internalType": "bool",
          "name": "outcome",
          "type": "bool"
        },
        {
          "indexed": false,
          "internalType": "uint256",
          "name": "timestamp",
          "type": "uint256"
        }
      ],
      "name": "MarketResolved",
      "type": "event"
    },
    {
      "anonymous": false,
      "inputs": [
        {
          "indexed": true,
          "internalType": "address",
          "name": "previousOwner",
          "type": "address"
        },
        {
          "indexed": true,
          "internalType": "address",
          "name": "newOwner",
          "type": "address"
        }
      ],
      "name": "OwnershipTransferred",
      "type": "event"
    },
    {
      "anonymous": false,
      "inputs": [
        {
          "indexed": true,
          "internalType": "uint256",
          "name": "marketId",
          "type": "uint256"
        },
        {
          "indexed": true,
          "internalType": "address",
          "name": "user",
          "type": "address"
        },
        {
          "indexed": false,
          "internalType": "uint256",
          "name": "amount",
          "type": "uint256"
        },
        {
          "indexed": false,
          "internalType": "uint256",
          "name": "timestamp",
          "type": "uint256"
        }
      ],
      "name": "PayoutClaimed",
      "type": "event"
    },
    {
      "inputs": [],
      "name": "MARKET_FEE",
      "outputs": [
        {
          "internalType": "uint256",
          "name": "",
          "type": "uint256"
        }
      ],
      "stateMutability": "view",
      "type": "function"
    },
    {
      "inputs": [],
      "name": "MAX_BET",
      "outputs": [
        {
          "internalType": "uint256",
          "name": "",
          "type": "uint256"
        }
      ],
      "stateMutability": "view",
      "type": "function"
    },
    {
      "inputs": [],
      "name": "MIN_BET",
      "outputs": [
        {
          "internalType": "uint256",
          "name": "",
          "type": "uint256"
        }
      ],
      "stateMutability": "view",
      "type": "function"
    },
    {
      "inputs": [
        {
          "internalType": "address",
          "name": "oracle",
          "type": "address"
        }
      ],
      "name": "addOracle",
      "outputs": [],
      "stateMutability": "nonpayable",
      "type": "function"
    },
    {
      "inputs": [
        {
          "internalType": "address",
          "name": "",
          "type": "address"
        }
      ],
      "name": "authorizedOracles",
      "outputs": [
        {
          "internalType": "bool",
          "name": "",
          "type": "bool"
        }
      ],
      "stateMutability": "view",
      "type": "function"
    },
    {
      "inputs": [
        {
          "internalType": "uint256",
          "name": "marketId",
          "type": "uint256"
        }
      ],
      "name": "claimPayout",
      "outputs": [],
      "stateMutability": "nonpayable",
      "type": "function"
    },
    {
      "inputs": [
        {
          "internalType": "string",
          "name": "question",
          "type": "string"
        },
        {
          "internalType": "string",
          "name": "description",
          "type": "string"
        },
        {
          "internalType": "uint256",
          "name": "endTime",
          "type": "uint256"
        },
        {
          "internalType": "address",
          "name": "oracle",
          "type": "address"
        },
        {
          "internalType": "uint256",
          "name": "fee",
          "type": "uint256"
        }
      ],
      "name": "createMarket",
      "outputs": [
        {
          "internalType": "uint256",
          "name": "marketId",
          "type": "uint256"
        }
      ],
      "stateMutability": "nonpayable",
      "type": "function"
    },
    {
      "inputs": [
        {
          "internalType": "uint256",
          "name": "marketId",
          "type": "uint256"
        }
      ],
      "name": "emergencyPause",
      "outputs": [],
      "stateMutability": "nonpayable",
      "type": "function"
    },
    {
      "inputs": [
        {
          "internalType": "uint256",
          "name": "marketId",
          "type": "uint256"
        }
      ],
      "name": "getEncryptedMarketTotals",
      "outputs": [
        {
          "internalType": "euint64",
          "name": "totalYesPool",
          "type": "bytes32"
        },
        {
          "internalType": "euint64",
          "name": "totalNoPool",
          "type": "bytes32"
        },
        {
          "internalType": "euint32",
          "name": "totalBetters",
          "type": "bytes32"
        }
      ],
      "stateMutability": "view",
      "type": "function"
    },
    {
      "inputs": [
        {
          "internalType": "uint256",
          "name": "marketId",
          "type": "uint256"
        },
        {
          "internalType": "address",
          "name": "user",
          "type": "address"
        }
      ],
      "name": "getEncryptedPosition",
      "outputs": [
        {
          "internalType": "euint64",
          "name": "yesAmount",
          "type": "bytes32"
        },
        {
          "internalType": "euint64",
          "name": "noAmount",
          "type": "bytes32"
        },
        {
          "internalType": "euint32",
          "name": "betCount",
          "type": "bytes32"
        },
        {
          "internalType": "ebool",
          "name": "hasPosition",
          "type": "bytes32"
        },
        {
          "internalType": "ebool",
          "name": "hasClaimed",
          "type": "bytes32"
        }
      ],
      "stateMutability": "view",
      "type": "function"
    },
    {
      "inputs": [
        {
          "internalType": "uint256",
          "name": "marketId",
          "type": "uint256"
        }
      ],
      "name": "getMarket",
      "outputs": [
        {
          "internalType": "string",
          "name": "question",
          "type": "string"
        },
        {
          "internalType": "string",
          "name": "description",
          "type": "string"
        },
        {
          "internalType": "uint256",
          "name": "endTime",
          "type": "uint256"
        },
        {
          "internalType": "enum PredictionMarket.MarketState",
          "name": "state",
          "type": "uint8"
        },
        {
          "internalType": "bool",
          "name": "outcome",
          "type": "bool"
        },
        {
          "internalType": "uint256",
          "name": "totalPool",
          "type": "uint256"
        },
        {
          "internalType": "address",
          "name": "creator",
          "type": "address"
        }
      ],
      "stateMutability": "view",
      "type": "function"
    },
    {
      "inputs": [
        {
          "internalType": "uint256",
          "name": "marketId",
          "type": "uint256"
        }
      ],
      "name": "makeMarketTotalsPublic",
      "outputs": [],
      "stateMutability": "nonpayable",
      "type": "function"
    },
    {
      "inputs": [
        {
          "internalType": "uint256",
          "name": "",
          "type": "uint256"
        }
      ],
      "name": "markets",
      "outputs": [
        {
          "internalType": "uint256",
          "name": "id",
          "type": "uint256"
        },
        {
          "internalType": "string",
          "name": "question",
          "type": "string"
        },
        {
          "internalType": "string",
          "name": "description",
          "type": "string"
        },
        {
          "internalType": "uint256",
          "name": "endTime",
          "type": "uint256"
        },
        {
          "internalType": "uint256",
          "name": "resolutionTime",
          "type": "uint256"
        },
        {
          "internalType": "enum PredictionMarket.MarketState",
          "name": "state",
          "type": "uint8"
        },
        {
          "internalType": "bool",
          "name": "outcome",
          "type": "bool"
        },
        {
          "internalType": "address",
          "name": "oracle",
          "type": "address"
        },
        {
          "internalType": "uint256",
          "name": "totalPool",
          "type": "uint256"
        },
        {
          "internalType": "uint256",
          "name": "creationTime",
          "type": "uint256"
        },
        {
          "internalType": "address",
          "name": "creator",
          "type": "address"
        },
        {
          "internalType": "uint256",
          "name": "fee",
          "type": "uint256"
        }
      ],
      "stateMutability": "view",
      "type": "function"
    },
    {
      "inputs": [],
      "name": "nextMarketId",
      "outputs": [
        {
          "internalType": "uint256",
          "name": "",
          "type": "uint256"
        }
      ],
      "stateMutability": "view",
      "type": "function"
    },
    {
      "inputs": [],
      "name": "owner",
      "outputs": [
        {
          "internalType": "address",
          "name": "",
          "type": "address"
        }
      ],
      "stateMutability": "view",
      "type": "function"
    },
    {
      "inputs": [
        {
          "internalType": "uint256",
          "name": "marketId",
          "type": "uint256"
        },
        {
          "internalType": "externalEuint64",
          "name": "encryptedAmount",
          "type": "bytes32"
        },
        {
          "internalType": "externalEbool",
          "name": "encryptedOutcome",
          "type": "bytes32"
        }
      ],
      "name": "placeBet",
      "outputs": [],
      "stateMutability": "payable",
      "type": "function"
    },
    {
      "inputs": [
        {
          "internalType": "address",
          "name": "oracle",
          "type": "address"
        }
      ],
      "name": "removeOracle",
      "outputs": [],
      "stateMutability": "nonpayable",
      "type": "function"
    },
    {
      "inputs": [],
      "name": "renounceOwnership",
      "outputs": [],
      "stateMutability": "nonpayable",
      "type": "function"
    },
    {
      "inputs": [
        {
          "internalType": "uint256",
          "name": "marketId",
          "type": "uint256"
        },
        {
          "internalType": "bool",
          "name": "outcome",
          "type": "bool"
        }
      ],
      "name": "resolveMarket",
      "outputs": [],
      "stateMutability": "nonpayable",
      "type": "function"
    },
    {
      "inputs": [
        {
          "internalType": "address",
          "name": "newOwner",
          "type": "address"
        }
      ],
      "name": "transferOwnership",
      "outputs": [],
      "stateMutability": "nonpayable",
      "type": "function"
    },
    {
      "inputs": [],
      "name": "withdrawFees",
      "outputs": [],
      "stateMutability": "nonpayable",
      "type": "function"
    },
    {
      "stateMutability": "payable",
      "type": "receive"
    }
  ],
  "bytecode": "0x6080604052600160055534801561001557600080fd5b50338061003c57604051631e4fbdf760e01b81526000600482015260240160405180910390fd5b6100458161004f565b506001805561009f565b600080546001600160a01b038381166001600160a01b0319831681178455604051919092169283917f8be0079c531659141344cd1fd0a4f28419497f9722a3daafe3b4186f6b6457e09190a35050565b61208c806100ae6000396000f3fe60806040526004361061012e5760003560e01c80637e95b523116100ab578063b1ca424d1161006f578063b1ca424d14610357578063df5dd1a514610392578063eb44fdd3146103b2578063efbc47dc146103e5578063f2fde38b14610405578063fdc85fc41461042557600080fd5b80637e95b5231461029b5780638a69614e146102b75780638da5cb5b146102d7578063ad3fbe30146102ff578063b1283e771461031f57600080fd5b806353dd2c7d116100f257806353dd2c7d146101c357806357bde4461461020b57806361c992a31461022b5780636540742f1461026b578063715018a61461028657600080fd5b8063257bcd6a1461013a57806336796b5c1461014f5780633afe024814610178578063406ef2ef14610198578063476343ee146101ae57600080fd5b3661013557005b600080fd5b61014d610148366004611a2b565b610445565b005b34801561015b57600080fd5b5061016561012c81565b6040519081526020015b60405180910390f35b34801561018457600080fd5b5061014d610193366004611a57565b610651565b3480156101a457600080fd5b5061016560055481565b3480156101ba57600080fd5b5061014d610737565b3480156101cf57600080fd5b506101e36101de366004611a8c565b6107dd565b604080519586526020860194909452928401919091526060830152608082015260a00161016f565b34801561021757600080fd5b5061014d610226366004611ab8565b61085d565b34801561023757600080fd5b5061025b610246366004611aed565b60046020526000908152604090205460ff1681565b604051901515815260200161016f565b34801561027757600080fd5b50610165662386f26fc1000081565b34801561029257600080fd5b5061014d610a2a565b3480156102a757600080fd5b50610165678ac7230489e8000081565b3480156102c357600080fd5b5061014d6102d2366004611a57565b610a3e565b3480156102e357600080fd5b506000546040516001600160a01b03909116815260200161016f565b34801561030b57600080fd5b5061014d61031a366004611a57565b610bf3565b34801561032b57600080fd5b5061033f61033a366004611a57565b610c48565b60405161016f9c9b9a99989796959493929190611b78565b34801561036357600080fd5b50610377610372366004611a57565b610dc8565b6040805193845260208401929092529082015260600161016f565b34801561039e57600080fd5b5061014d6103ad366004611aed565b610e1e565b3480156103be57600080fd5b506103d26103cd366004611a57565b610e4a565b60405161016f9796959493929190611c04565b3480156103f157600080fd5b50610165610400366004611d09565b611005565b34801561041157600080fd5b5061014d610420366004611aed565b6112b9565b34801561043157600080fd5b5061014d610440366004611aed565b6112f4565b82600081118015610457575060055481105b61047c5760405162461bcd60e51b815260040161047390611d8f565b60405180910390fd5b836000808281526002602052604090206005015460ff1660038111156104a4576104a4611b4e565b146104e55760405162461bcd60e51b81526020600482015260116024820152704d61726b6574206e6f742061637469766560781b6044820152606401610473565b60008181526002602052604090206003015442106105345760405162461bcd60e51b815260206004820152600c60248201526b13585c9ad95d08195b99195960a21b6044820152606401610473565b61053c61131d565b662386f26fc10000341015801561055b5750678ac7230489e800003411155b61059c5760405162461bcd60e51b8152602060048201526012602482015271125b9d985b1a590818995d08185b5bdd5b9d60721b6044820152606401610473565b60006105b78560405180602001604052806000815250611347565b905060006105d4856040518060200160405280600081525061135e565b90506105e28733848461136c565b60008781526002602052604081206006018054349290610603908490611dcd565b9091555050604051428152339088907f87b9df6fa7123c2e6044c3a3a37b4b0662c188d7a58ef86ee55067c46e4613ad9060200160405180910390a3505061064a60018055565b5050505050565b80600081118015610663575060055481105b61067f5760405162461bcd60e51b815260040161047390611d8f565b60008281526002602052604090206005015482906201000090046001600160a01b03163314806106be57503360009081526004602052604090205460ff165b6107025760405162461bcd60e51b81526020600482015260156024820152744e6f7420617574686f72697a6564206f7261636c6560581b6044820152606401610473565b6000838152600360205260409020805461071b90611487565b506107298160010154611487565b5061064a8160020154611487565b61073f611496565b600080546040516001600160a01b039091169047908381818185875af1925050503d806000811461078c576040519150601f19603f3d011682016040523d82523d6000602084013e610791565b606091505b50509050806107da5760405162461bcd60e51b8152602060048201526015602482015274119959481dda5d1a191c985dd85b0819985a5b1959605a1b6044820152606401610473565b50565b6000806000806000866000811180156107f7575060055481105b6108135760405162461bcd60e51b815260040161047390611d8f565b505050600094855250506003602081815260408086206001600160a01b03959095168652938201905291909220805460018201546002830154938301546004909301549195909450565b8160008111801561086f575060055481105b61088b5760405162461bcd60e51b815260040161047390611d8f565b60008381526002602052604090206005015483906201000090046001600160a01b03163314806108ca57503360009081526004602052604090205460ff165b61090e5760405162461bcd60e51b81526020600482015260156024820152744e6f7420617574686f72697a6564206f7261636c6560581b6044820152606401610473565b600084815260026020526040812090600582015460ff16600381111561093657610936611b4e565b146109775760405162461bcd60e51b81526020600482015260116024820152704d61726b6574206e6f742061637469766560781b6044820152606401610473565b80600301544210156109c15760405162461bcd60e51b81526020600482015260136024820152724d61726b6574207374696c6c2061637469766560681b6044820152606401610473565b60058101805461ffff191661010086151590810291909117600217909155426004830181905560408051928352602083019190915286917f6d4d544f5a6dcf38d77a232d3ef7358625c74877a1ad954fcb507872e7a05eaf910160405180910390a25050505050565b610a32611496565b610a3c60006114c3565b565b80600081118015610a50575060055481105b610a6c5760405162461bcd60e51b815260040161047390611d8f565b610a7461131d565b600082815260026020819052604090912090600582015460ff166003811115610a9f57610a9f611b4e565b14610ae25760405162461bcd60e51b815260206004820152601360248201527213585c9ad95d081b9bdd081c995cdbdb1d9959606a1b6044820152606401610473565b600083815260036020818152604080842033855290920190529020610b076001611513565b6004820155604051662386f26fc1000090600090339083908381818185875af1925050503d8060008114610b57576040519150601f19603f3d011682016040523d82523d6000602084013e610b5c565b606091505b5050905080610ba65760405162461bcd60e51b815260206004820152601660248201527514185e5bdd5d081d1c985b9cd9995c8819985a5b195960521b6044820152606401610473565b60408051838152426020820152339188917f3626272622c96308891d49a949e7ebc210f36630db003f0846df166fdcc9f5e2910160405180910390a350505050610bef60018055565b5050565b610bfb611496565b80600081118015610c0d575060055481105b610c295760405162461bcd60e51b815260040161047390611d8f565b506000908152600260205260409020600501805460ff19166003179055565b60026020526000908152604090208054600182018054919291610c6a90611de0565b80601f0160208091040260200160405190810160405280929190818152602001828054610c9690611de0565b8015610ce35780601f10610cb857610100808354040283529160200191610ce3565b820191906000526020600020905b815481529060010190602001808311610cc657829003601f168201915b505050505090806002018054610cf890611de0565b80601f0160208091040260200160405190810160405280929190818152602001828054610d2490611de0565b8015610d715780601f10610d4657610100808354040283529160200191610d71565b820191906000526020600020905b815481529060010190602001808311610d5457829003601f168201915b505050506003830154600484015460058501546006860154600787015460088801546009909801549697949693955060ff80841695610100850490911694620100009094046001600160a01b03908116949116908c565b600080600083600081118015610ddf575060055481105b610dfb5760405162461bcd60e51b815260040161047390611d8f565b505050600091825250600360205260409020805460018201546002909201549092565b610e26611496565b6001600160a01b03166000908152600460205260409020805460ff19166001179055565b606080600080600080600087600081118015610e67575060055481105b610e835760405162461bcd60e51b815260040161047390611d8f565b6000898152600260208190526040909120600381015460058201546006830154600884015460018501805495969095908701949360ff80821694610100909204169290916001600160a01b03909116908790610ede90611de0565b80601f0160208091040260200160405190810160405280929190818152602001828054610f0a90611de0565b8015610f575780601f10610f2c57610100808354040283529160200191610f57565b820191906000526020600020905b815481529060010190602001808311610f3a57829003601f168201915b50505050509650858054610f6a90611de0565b80601f0160208091040260200160405190810160405280929190818152602001828054610f9690611de0565b8015610fe35780601f10610fb857610100808354040283529160200191610fe3565b820191906000526020600020905b815481529060010190602001808311610fc657829003601f168201915b5050505050955098509850985098509850985098505050919395979092949650565b60004284116110565760405162461bcd60e51b815260206004820152601a60248201527f456e642074696d65206d75737420626520696e206675747572650000000000006044820152606401610473565b6001600160a01b0383166110a55760405162461bcd60e51b8152602060048201526016602482015275496e76616c6964206f7261636c65206164647265737360501b6044820152606401610473565b6103e88211156110e65760405162461bcd60e51b815260206004820152600c60248201526b08ccaca40e8dede40d0d2ced60a31b6044820152606401610473565b600580549060006110f683611e1a565b919050559050604051806101800160405280828152602001878152602001868152602001858152602001600081526020016000600381111561113a5761113a611b4e565b8152600060208083018290526001600160a01b038716604080850191909152606084018390524260808501523360a085015260c090930186905284825260028152919020825181559082015160018201906111959082611e84565b50604082015160028201906111aa9082611e84565b50606082015181600301556080820151816004015560a08201518160050160006101000a81548160ff021916908360038111156111e9576111e9611b4e565b021790555060c082015160058201805460e0850151610100600160b01b0319909116610100931515840262010000600160b01b03191617620100006001600160a01b03928316021790915590830151600683015561012083015160078301556101408301516008830180546001600160a01b0319169190921617905561016090910151600990910155604051339082907f57d0d124b72f81ed1da0dc728fc33db342705974792928796f6577b8db5c3d53906112a8908a908990611f44565b60405180910390a395945050505050565b6112c1611496565b6001600160a01b0381166112eb57604051631e4fbdf760e01b815260006004820152602401610473565b6107da816114c3565b6112fc611496565b6001600160a01b03166000908152600460205260409020805460ff19169055565b60026001540361134057604051633ee5aeb560e01b815260040160405180910390fd5b6002600155565b600061135583836005611531565b90505b92915050565b600061135583836000611531565b60008481526003602081815260408084206001600160a01b03881685528084019092528320918201549092906113a190611648565b90506113ba82600201546113b56001611653565b611666565b600283015560006113d485876113cf84611698565b6116af565b905060006113ec866113e66000611698565b896116af565b90506113fc8460000154836116c6565b8455600184015461140d90826116c6565b846001018190555061141f6001611513565b6003850155845461143090836116c6565b8555600185015461144190826116c6565b85600101819055506000611463846114596001611653565b6113cf6000611653565b9050611473866002015482611666565b866002018190555050505050505050505050565b6000611492826116e9565b5090565b6000546001600160a01b03163314610a3c5760405163118cdaa760e01b8152336004820152602401610473565b600080546001600160a01b038381166001600160a01b0319831681178455604051919092169283917f8be0079c531659141344cd1fd0a4f28419497f9722a3daafe3b4186f6b6457e09190a35050565b600061135882611524576000611527565b60015b60ff1660006117a1565b7fed8d60e34876f751cc8b014c560745351147d9de11b9347c854e881b128ea6015460405163196d0b9b60e01b8152600091600080516020612037833981519152916001600160a01b039091169063196d0b9b90611599908890339089908990600401611f76565b6020604051808303816000875af11580156115b8573d6000803e3d6000fd5b505050506040513d601f19601f820116820180604052508101906115dc9190611faf565b8154604051630f8e573b60e21b8152600481018390523360248201529193506001600160a01b031690633e395cec90604401600060405180830381600087803b15801561162857600080fd5b505af115801561163c573d6000803e3d6000fd5b50505050509392505050565b600061135882611850565b60006113588263ffffffff1660046117a1565b60008261167a576116776000611653565b92505b8161168c576116896000611653565b91505b611355838360006118d4565b60006113588267ffffffffffffffff1660056117a1565b60006116bc848484611990565b90505b9392505050565b6000826116da576116d76000611698565b92505b8161168c576116896000611698565b604080516001808252818301909252600080516020612037833981519152916000919060208083019080368337019050509050828160008151811061173057611730611fc8565b60209081029190910101528154604051637d6e912360e11b81526001600160a01b039091169063fadd22469061176a908490600401611fde565b600060405180830381600087803b15801561178457600080fd5b505af1158015611798573d6000803e3d6000fd5b50505050505050565b7fed8d60e34876f751cc8b014c560745351147d9de11b9347c854e881b128ea60154604051639cd07acb60e01b8152600091600080516020612037833981519152916001600160a01b0390911690639cd07acb906118059087908790600401612022565b6020604051808303816000875af1158015611824573d6000803e3d6000fd5b505050506040513d601f19601f820116820180604052508101906118489190611faf565b949350505050565b6000806000805160206120378339815191526001810154604051630f51ccfb60e41b8152600481018690529192506001600160a01b03169063f51ccfb0906024016020604051808303816000875af11580156118b0573d6000803e3d6000fd5b505050506040513d601f19601f820116820180604052508101906116bf9190611faf565b60008082156118e85750600160f81b6118ec565b5060005b6000600080516020612037833981519152600181015460405163022f65e760e31b815260048101899052602481018890526001600160f81b0319851660448201529192506001600160a01b03169063117b2f38906064016020604051808303816000875af1158015611962573d6000803e3d6000fd5b505050506040513d601f19601f820116820180604052508101906119869190611faf565b9695505050505050565b6000806000805160206120378339815191526001810154604051637702dcff60e01b81526004810188905260248101879052604481018690529192506001600160a01b031690637702dcff906064016020604051808303816000875af11580156119fe573d6000803e3d6000fd5b505050506040513d601f19601f82011682018060405250810190611a229190611faf565b95945050505050565b600080600060608486031215611a4057600080fd5b505081359360208301359350604090920135919050565b600060208284031215611a6957600080fd5b5035919050565b80356001600160a01b0381168114611a8757600080fd5b919050565b60008060408385031215611a9f57600080fd5b82359150611aaf60208401611a70565b90509250929050565b60008060408385031215611acb57600080fd5b8235915060208301358015158114611ae257600080fd5b809150509250929050565b600060208284031215611aff57600080fd5b61135582611a70565b6000815180845260005b81811015611b2e57602081850181015186830182015201611b12565b506000602082860101526020601f19601f83011685010191505092915050565b634e487b7160e01b600052602160045260246000fd5b60048110611b7457611b74611b4e565b9052565b60006101808e8352806020840152611b928184018f611b08565b90508281036040840152611ba6818e611b08565b9150508a6060830152896080830152611bc260a083018a611b64565b96151560c08201526001600160a01b0395861660e082015261010081019490945261012084019290925290921661014082015261016001529695505050505050565b60e081526000611c1760e083018a611b08565b8281036020840152611c29818a611b08565b915050866040830152611c3f6060830187611b64565b931515608082015260a08101929092526001600160a01b031660c090910152949350505050565b634e487b7160e01b600052604160045260246000fd5b600082601f830112611c8d57600080fd5b813567ffffffffffffffff80821115611ca857611ca8611c66565b604051601f8301601f19908116603f01168101908282118183101715611cd057611cd0611c66565b81604052838152866020858801011115611ce957600080fd5b836020870160208301376000602085830101528094505050505092915050565b600080600080600060a08688031215611d2157600080fd5b853567ffffffffffffffff80821115611d3957600080fd5b611d4589838a01611c7c565b96506020880135915080821115611d5b57600080fd5b50611d6888828901611c7c565b94505060408601359250611d7e60608701611a70565b949793965091946080013592915050565b6020808252600e908201526d125b9d985b1a59081b585c9ad95d60921b604082015260600190565b634e487b7160e01b600052601160045260246000fd5b8082018082111561135857611358611db7565b600181811c90821680611df457607f821691505b602082108103611e1457634e487b7160e01b600052602260045260246000fd5b50919050565b600060018201611e2c57611e2c611db7565b5060010190565b601f821115611e7f576000816000526020600020601f850160051c81016020861015611e5c5750805b601f850160051c820191505b81811015611e7b57828155600101611e68565b5050505b505050565b815167ffffffffffffffff811115611e9e57611e9e611c66565b611eb281611eac8454611de0565b84611e33565b602080601f831160018114611ee75760008415611ecf5750858301515b600019600386901b1c1916600185901b178555611e7b565b600085815260208120601f198616915b82811015611f1657888601518255948401946001909101908401611ef7565b5085821015611f345787850151600019600388901b60f8161c191681555b5050505050600190811b01905550565b604081526000611f576040830185611b08565b90508260208301529392505050565b60548110611b7457611b74611b4e565b8481526001600160a01b0384166020820152608060408201819052600090611fa090830185611b08565b9050611a226060830184611f66565b600060208284031215611fc157600080fd5b5051919050565b634e487b7160e01b600052603260045260246000fd5b6020808252825182820181905260009190848201906040850190845b8181101561201657835183529284019291840191600101611ffa565b50909695505050505050565b828152604081016116bf6020830184611f6656feed8d60e34876f751cc8b014c560745351147d9de11b9347c854e881b128ea600a26469706673582212201452dba1786bae1a1307580fcbbae59e1a38e46f4d4b323fb74a515af3e475f464736f6c63430008180033",
  "linkReferences": {},
  "deployedLinkReferences": {}
}