{
  "_format": "hh-sol-artifact-1",
  "contractName": "SimpleTest",
  "sourceName": "contracts/SimpleTest.sol",
  "abi": [
    {
      "inputs": [],
      "stateMutability": "nonpayable",
      "type": "constructor"
    },
    {
      "inputs": [
        {
          "internalType": "uint64",
          "name": "a",
          "type": "uint64"
        },
        {
          "internalType": "uint64",
          "name": "b",
          "type": "uint64"
        }
      ],
      "name": "testArithmetic",
      "outputs": [],
      "stateMutability": "nonpayable",
      "type": "function"
    },
    {
      "inputs": [
        {
          "internalType": "uint64",
          "name": "a",
          "type": "uint64"
        },
        {
          "internalType": "uint64",
          "name": "b",
          "type": "uint64"
        }
      ],
      "name": "testComparison",
      "outputs": [
        {
          "internalType": "ebool",
          "name": "",
          "type": "bytes32"
        }
      ],
      "stateMutability": "nonpayable",
      "type": "function"
    },
    {
      "inputs": [
        {
          "internalType": "uint64",
          "name": "value",
          "type": "uint64"
        }
      ],
      "name": "testConversion",
      "outputs": [],
      "stateMutability": "nonpayable",
      "type": "function"
    }
  ],
  "bytecode": "0x608060405234801561001057600080fd5b5061001b6000610031565b60009081556100299061004d565b600155610173565b60006100476001600160401b0383166005610067565b92915050565b60006100478261005e576000610061565b60015b60ff1660005b7fed8d60e34876f751cc8b014c560745351147d9de11b9347c854e881b128ea60154604051639cd07acb60e01b81526000917fed8d60e34876f751cc8b014c560745351147d9de11b9347c854e881b128ea600916001600160a01b0390911690639cd07acb906100dd9087908790600401610128565b6020604051808303816000875af11580156100fc573d6000803e3d6000fd5b505050506040513d601f19601f82011682018060405250810190610120919061015a565b949350505050565b828152604081016054831061014d57634e487b7160e01b600052602160045260246000fd5b8260208301529392505050565b60006020828403121561016c57600080fd5b5051919050565b6104b9806101826000396000f3fe608060405234801561001057600080fd5b50600436106100415760003560e01c8063107ae27e146100465780638ee8f2711461005b578063d29b04dd1461006e575b600080fd5b6100596100543660046103ea565b610093565b005b61005961006936600461041d565b6100c0565b61008161007c3660046103ea565b6100cf565b60405190815260200160405180910390f35b600061009e836100fd565b905060006100ab836100fd565b90506100b7828261011a565b60005550505050565b6100c9816100fd565b60005550565b6000806100db846100fd565b905060006100e8846100fd565b90506100f48282610153565b95945050505050565b60006101148267ffffffffffffffff166005610185565b92915050565b60008261012e5761012b60006100fd565b92505b816101405761013d60006100fd565b91505b61014c83836000610246565b9392505050565b6000826101675761016460006100fd565b92505b816101795761017660006100fd565b91505b61014c8383600061032e565b7fed8d60e34876f751cc8b014c560745351147d9de11b9347c854e881b128ea60154604051639cd07acb60e01b81526000917fed8d60e34876f751cc8b014c560745351147d9de11b9347c854e881b128ea600916001600160a01b0390911690639cd07acb906101fb9087908790600401610438565b6020604051808303816000875af115801561021a573d6000803e3d6000fd5b505050506040513d601f19601f8201168201806040525081019061023e919061046a565b949350505050565b600080821561025a5750600160f81b61025e565b5060005b7fed8d60e34876f751cc8b014c560745351147d9de11b9347c854e881b128ea6015460405163022f65e760e31b815260048101879052602481018690526001600160f81b0319831660448201527fed8d60e34876f751cc8b014c560745351147d9de11b9347c854e881b128ea600916001600160a01b03169063117b2f38906064015b6020604051808303816000875af1158015610300573d6000803e3d6000fd5b505050506040513d601f19601f82011682018060405250810190610324919061046a565b9695505050505050565b60008082156103425750600160f81b610346565b5060005b7fed8d60e34876f751cc8b014c560745351147d9de11b9347c854e881b128ea601546040516385362ee760e01b815260048101879052602481018690526001600160f81b0319831660448201527fed8d60e34876f751cc8b014c560745351147d9de11b9347c854e881b128ea600916001600160a01b0316906385362ee7906064016102e1565b803567ffffffffffffffff811681146103e557600080fd5b919050565b600080604083850312156103fd57600080fd5b610406836103cd565b9150610414602084016103cd565b90509250929050565b60006020828403121561042f57600080fd5b61014c826103cd565b828152604081016054831061045d57634e487b7160e01b600052602160045260246000fd5b8260208301529392505050565b60006020828403121561047c57600080fd5b505191905056fea2646970667358221220d7c4c0b0eb9c3018663ffed0d4f1068cdf6239db0c1470ce3d4141c2d276063b64736f6c63430008180033",
  "linkReferences": {},
  "deployedLinkReferences": {}
}