{
  "_format": "hh-sol-artifact-1",
  "contractName": "BettingVault",
  "sourceName": "contracts/BettingVault.sol",
  "abi": [
    {
      "inputs": [],
      "stateMutability": "nonpayable",
      "type": "constructor"
    },
    {
      "inputs": [
        {
          "internalType": "address",
          "name": "owner",
          "type": "address"
        }
      ],
      "name": "OwnableInvalidOwner",
      "type": "error"
    },
    {
      "inputs": [
        {
          "internalType": "address",
          "name": "account",
          "type": "address"
        }
      ],
      "name": "OwnableUnauthorizedAccount",
      "type": "error"
    },
    {
      "inputs": [],
      "name": "ReentrancyGuardReentrantCall",
      "type": "error"
    },
    {
      "anonymous": false,
      "inputs": [
        {
          "indexed": true,
          "internalType": "address",
          "name": "user",
          "type": "address"
        },
        {
          "indexed": false,
          "internalType": "uint256",
          "name": "amount",
          "type": "uint256"
        },
        {
          "indexed": false,
          "internalType": "uint256",
          "name": "timestamp",
          "type": "uint256"
        }
      ],
      "name": "BetPlaced",
      "type": "event"
    },
    {
      "anonymous": false,
      "inputs": [
        {
          "indexed": true,
          "internalType": "address",
          "name": "previousOwner",
          "type": "address"
        },
        {
          "indexed": true,
          "internalType": "address",
          "name": "newOwner",
          "type": "address"
        }
      ],
      "name": "OwnershipTransferred",
      "type": "event"
    },
    {
      "anonymous": false,
      "inputs": [
        {
          "indexed": false,
          "internalType": "uint256",
          "name": "totalAmount",
          "type": "uint256"
        },
        {
          "indexed": false,
          "internalType": "uint256",
          "name": "totalBettors",
          "type": "uint256"
        },
        {
          "indexed": false,
          "internalType": "uint256",
          "name": "timestamp",
          "type": "uint256"
        }
      ],
      "name": "PotRevealed",
      "type": "event"
    },
    {
      "anonymous": false,
      "inputs": [
        {
          "indexed": false,
          "internalType": "uint256",
          "name": "sessionId",
          "type": "uint256"
        },
        {
          "indexed": false,
          "internalType": "uint256",
          "name": "timestamp",
          "type": "uint256"
        }
      ],
      "name": "SessionEnded",
      "type": "event"
    },
    {
      "anonymous": false,
      "inputs": [
        {
          "indexed": false,
          "internalType": "uint256",
          "name": "sessionId",
          "type": "uint256"
        },
        {
          "indexed": false,
          "internalType": "uint256",
          "name": "endTime",
          "type": "uint256"
        }
      ],
      "name": "SessionStarted",
      "type": "event"
    },
    {
      "inputs": [],
      "name": "computeResult",
      "outputs": [],
      "stateMutability": "nonpayable",
      "type": "function"
    },
    {
      "inputs": [],
      "name": "emergencyPause",
      "outputs": [],
      "stateMutability": "nonpayable",
      "type": "function"
    },
    {
      "inputs": [],
      "name": "endSession",
      "outputs": [],
      "stateMutability": "nonpayable",
      "type": "function"
    },
    {
      "inputs": [
        {
          "internalType": "address",
          "name": "user",
          "type": "address"
        }
      ],
      "name": "getEncryptedBet",
      "outputs": [
        {
          "internalType": "euint64",
          "name": "",
          "type": "bytes32"
        }
      ],
      "stateMutability": "view",
      "type": "function"
    },
    {
      "inputs": [],
      "name": "getResultComputed",
      "outputs": [
        {
          "internalType": "ebool",
          "name": "",
          "type": "bytes32"
        }
      ],
      "stateMutability": "view",
      "type": "function"
    },
    {
      "inputs": [],
      "name": "getSessionInfo",
      "outputs": [
        {
          "internalType": "uint256",
          "name": "_sessionId",
          "type": "uint256"
        },
        {
          "internalType": "uint256",
          "name": "_sessionEndTime",
          "type": "uint256"
        },
        {
          "internalType": "bool",
          "name": "_sessionActive",
          "type": "bool"
        }
      ],
      "stateMutability": "view",
      "type": "function"
    },
    {
      "inputs": [],
      "name": "getTotalBettorsEncrypted",
      "outputs": [
        {
          "internalType": "euint32",
          "name": "",
          "type": "bytes32"
        }
      ],
      "stateMutability": "view",
      "type": "function"
    },
    {
      "inputs": [],
      "name": "getTotalPotEncrypted",
      "outputs": [
        {
          "internalType": "euint64",
          "name": "",
          "type": "bytes32"
        }
      ],
      "stateMutability": "view",
      "type": "function"
    },
    {
      "inputs": [],
      "name": "initializeFHEState",
      "outputs": [],
      "stateMutability": "nonpayable",
      "type": "function"
    },
    {
      "inputs": [],
      "name": "makeBettorsPublic",
      "outputs": [],
      "stateMutability": "nonpayable",
      "type": "function"
    },
    {
      "inputs": [],
      "name": "makePotPublic",
      "outputs": [],
      "stateMutability": "nonpayable",
      "type": "function"
    },
    {
      "inputs": [],
      "name": "owner",
      "outputs": [
        {
          "internalType": "address",
          "name": "",
          "type": "address"
        }
      ],
      "stateMutability": "view",
      "type": "function"
    },
    {
      "inputs": [
        {
          "internalType": "externalEuint64",
          "name": "encAmount",
          "type": "bytes32"
        }
      ],
      "name": "placeBet",
      "outputs": [],
      "stateMutability": "nonpayable",
      "type": "function"
    },
    {
      "inputs": [],
      "name": "renounceOwnership",
      "outputs": [],
      "stateMutability": "nonpayable",
      "type": "function"
    },
    {
      "inputs": [],
      "name": "sessionActive",
      "outputs": [
        {
          "internalType": "bool",
          "name": "",
          "type": "bool"
        }
      ],
      "stateMutability": "view",
      "type": "function"
    },
    {
      "inputs": [],
      "name": "sessionEndTime",
      "outputs": [
        {
          "internalType": "uint256",
          "name": "",
          "type": "uint256"
        }
      ],
      "stateMutability": "view",
      "type": "function"
    },
    {
      "inputs": [],
      "name": "sessionId",
      "outputs": [
        {
          "internalType": "uint256",
          "name": "",
          "type": "uint256"
        }
      ],
      "stateMutability": "view",
      "type": "function"
    },
    {
      "inputs": [
        {
          "internalType": "uint256",
          "name": "duration",
          "type": "uint256"
        }
      ],
      "name": "startSession",
      "outputs": [],
      "stateMutability": "nonpayable",
      "type": "function"
    },
    {
      "inputs": [
        {
          "internalType": "address",
          "name": "newOwner",
          "type": "address"
        }
      ],
      "name": "transferOwnership",
      "outputs": [],
      "stateMutability": "nonpayable",
      "type": "function"
    },
    {
      "inputs": [],
      "name": "withdrawETH",
      "outputs": [],
      "stateMutability": "nonpayable",
      "type": "function"
    },
    {
      "stateMutability": "payable",
      "type": "receive"
    }
  ],
  "bytecode": "0x608060405234801561001057600080fd5b50338061003757604051631e4fbdf760e01b81526000600482015260240160405180910390fd5b61004081610058565b5060018080556006556008805460ff191690556100a8565b600080546001600160a01b038381166001600160a01b0319831681178455604051919092169283917f8be0079c531659141344cd1fd0a4f28419497f9722a3daafe3b4186f6b6457e09190a35050565b6112ec806100b76000396000f3fe6080604052600436106101235760003560e01c80638da5cb5b116100a0578063e086e5ec11610064578063e086e5ec146102fd578063e237a3fc14610312578063ea8f5cc614610327578063eb9f1a0a1461033c578063f2fde38b1461035157600080fd5b80638da5cb5b1461023d5780639463b1cd146102655780639648c9f41461029b578063bb575333146102b1578063c4b18f8c146102c757600080fd5b806365eb01dd116100e757806365eb01dd146101c9578063715018a6146101de57806377127612146101f35780637ad139c9146102135780637cac97361461022857600080fd5b8063042b5fed1461012f5780633b55e385146101515780634da5f49614610180578063505e2f8d1461019557806351858e27146101b457600080fd5b3661012a57005b600080fd5b34801561013b57600080fd5b5061014f61014a366004611090565b610371565b005b34801561015d57600080fd5b5060085461016b9060ff1681565b60405190151581526020015b60405180910390f35b34801561018c57600080fd5b5061014f610525565b3480156101a157600080fd5b506005545b604051908152602001610177565b3480156101c057600080fd5b5061014f610578565b3480156101d557600080fd5b506002546101a6565b3480156101ea57600080fd5b5061014f6105c8565b3480156101ff57600080fd5b5061014f61020e366004611090565b6105dc565b34801561021f57600080fd5b5061014f61071e565b34801561023457600080fd5b5061014f610754565b34801561024957600080fd5b506000546040516001600160a01b039091168152602001610177565b34801561027157600080fd5b5060065460075460085460ff16604080519384526020840192909252151590820152606001610177565b3480156102a757600080fd5b506101a660065481565b3480156102bd57600080fd5b506101a660075481565b3480156102d357600080fd5b506101a66102e23660046110a9565b6001600160a01b031660009081526003602052604090205490565b34801561030957600080fd5b5061014f6107b1565b34801561031e57600080fd5b5061014f61089b565b34801561033357600080fd5b506004546101a6565b34801561034857600080fd5b5061014f610933565b34801561035d57600080fd5b5061014f61036c3660046110a9565b6109aa565b6103796109e5565b60085460ff166103c45760405162461bcd60e51b815260206004820152601160248201527027379030b1ba34bb329039b2b9b9b4b7b760791b60448201526064015b60405180910390fd5b60075442106104055760405162461bcd60e51b815260206004820152600d60248201526c14d95cdcda5bdb88195b991959609a1b60448201526064016103bb565b60006104208260405180602001604052806000815250610a0f565b3360009081526003602052604081205491925061043d8284610a26565b33600090815260036020526040902081905560025490915061045f9084610a26565b60025560006104768361047183610a58565b610a6f565b90506000610497826104886001610aa1565b6104926000610aa1565b610ab4565b90506104a560055482610acb565b600555336000908152600360205260409020546104c190610aee565b506104cd600254610aee565b506104d9600554610aee565b50604080516000815242602082015233917e1ecf1d0c4d22f324b3ecb9cdf0e5f772bc74ac104e6626f4b3845433d03105910160405180910390a2505050505061052260018055565b50565b61052d610afe565b6105376000610a58565b6002556105446000610b2b565b6004556105516000610aa1565b60055560025461056090610aee565b5061056c600454610aee565b50610522600554610aee565b610580610afe565b6008805460ff19169055600654604080519182524260208301527fe4bdf3c3959e99d1ee4e5254bb9290bc5f6e3defb54820041d5245054448bb7391015b60405180910390a1565b6105d0610afe565b6105da6000610b49565b565b6105e4610afe565b60085460ff16156106305760405162461bcd60e51b815260206004820152601660248201527553657373696f6e20616c72656164792061637469766560501b60448201526064016103bb565b600081116106805760405162461bcd60e51b815260206004820152601960248201527f4475726174696f6e206d75737420626520706f7369746976650000000000000060448201526064016103bb565b6008805460ff1916600117905561069781426110e8565b600755600680549060006106aa836110fb565b91905055506106b96000610a58565b6002556106c66000610b2b565b6004556106d36000610aa1565b6005556006546007546040517fce6cbe3431d9ec9ac1a82a77a80bb9120b0250307afb3ed08873ea84c52b70c09261071392908252602082015260400190565b60405180910390a150565b610726610afe565b60085460ff16156107495760405162461bcd60e51b81526004016103bb90611114565b610522600554610b99565b61075c610afe565b60085460ff161561077f5760405162461bcd60e51b81526004016103bb90611114565b600061078c6103e8610a58565b9050600061079c60025483610ba4565b600481905590506107ac81610aee565b505050565b6107b9610afe565b47806107fc5760405162461bcd60e51b81526020600482015260126024820152714e6f2045544820746f20776974686472617760701b60448201526064016103bb565b600080546040516001600160a01b039091169083908381818185875af1925050503d8060008114610849576040519150601f19603f3d011682016040523d82523d6000602084013e61084e565b606091505b50509050806108975760405162461bcd60e51b8152602060048201526015602482015274115512081dda5d1a191c985dd85b0819985a5b1959605a1b60448201526064016103bb565b5050565b6108a3610afe565b60085460ff166108e95760405162461bcd60e51b815260206004820152601160248201527027379030b1ba34bb329039b2b9b9b4b7b760791b60448201526064016103bb565b6007544210156105805760405162461bcd60e51b815260206004820152601560248201527414d95cdcda5bdb881b9bdd08195b991959081e595d605a1b60448201526064016103bb565b61093b610afe565b60085460ff161561095e5760405162461bcd60e51b81526004016103bb90611114565b610969600254610b99565b50604080516000808252602082015242918101919091527fd261a56d8e265046fb22c1244fe0faba4d8e6bd6b480ae282123f6bd304a4514906060016105be565b6109b2610afe565b6001600160a01b0381166109dc57604051631e4fbdf760e01b8152600060048201526024016103bb565b61052281610b49565b600260015403610a0857604051633ee5aeb560e01b815260040160405180910390fd5b6002600155565b6000610a1d83836005610bd6565b90505b92915050565b600082610a3a57610a376000610a58565b92505b81610a4c57610a496000610a58565b91505b610a1d83836000610cdb565b6000610a208267ffffffffffffffff166005610d8f565b600082610a8357610a806000610a58565b92505b81610a9557610a926000610a58565b91505b610a1d83836000610e2c565b6000610a208263ffffffff166004610d8f565b6000610ac1848484610e93565b90505b9392505050565b600082610adf57610adc6000610aa1565b92505b81610a4c57610a496000610aa1565b6000610afa8230610f2e565b5090565b6000546001600160a01b031633146105da5760405163118cdaa760e01b81523360048201526024016103bb565b6000610a2082610b3c576000610b3f565b60015b60ff166000610d8f565b600080546001600160a01b038381166001600160a01b0319831681178455604051919092169283917f8be0079c531659141344cd1fd0a4f28419497f9722a3daafe3b4186f6b6457e09190a35050565b6000610afa82610fa8565b600082610bb857610bb56000610a58565b92505b81610bca57610bc76000610a58565b91505b610a1d83836000611029565b6000805160206112978339815191525460405163196d0b9b60e01b8152600091600080516020611277833981519152916001600160a01b039091169063196d0b9b90610c2c908890339089908990600401611164565b6020604051808303816000875af1158015610c4b573d6000803e3d6000fd5b505050506040513d601f19601f82011682018060405250810190610c6f91906111cf565b8154604051630f8e573b60e21b8152600481018390523360248201529193506001600160a01b031690633e395cec90604401600060405180830381600087803b158015610cbb57600080fd5b505af1158015610ccf573d6000803e3d6000fd5b50505050509392505050565b6000808215610cef5750600160f81b610cf3565b5060005b6000805160206112978339815191525460405163022f65e760e31b8152600080516020611277833981519152916001600160a01b03169063117b2f3890610d42908990899087906004016111e8565b6020604051808303816000875af1158015610d61573d6000803e3d6000fd5b505050506040513d601f19601f82011682018060405250810190610d8591906111cf565b9695505050505050565b60008051602061129783398151915254604051639cd07acb60e01b8152600091600080516020611277833981519152916001600160a01b0390911690639cd07acb90610de19087908790600401611208565b6020604051808303816000875af1158015610e00573d6000803e3d6000fd5b505050506040513d601f19601f82011682018060405250810190610e2491906111cf565b949350505050565b6000808215610e405750600160f81b610e44565b5060005b6000805160206112978339815191525460405163f77f3f1d60e01b8152600080516020611277833981519152916001600160a01b03169063f77f3f1d90610d42908990899087906004016111e8565b6000806000805160206112778339815191526001810154604051637702dcff60e01b81526004810188905260248101879052604481018690529192506001600160a01b031690637702dcff906064016020604051808303816000875af1158015610f01573d6000803e3d6000fd5b505050506040513d601f19601f82011682018060405250810190610f2591906111cf565b95945050505050565b6000805160206112778339815191528054604051635ca4b5b160e11b8152600481018590526001600160a01b0384811660248301529091169063b9496b62906044015b600060405180830381600087803b158015610f8b57600080fd5b505af1158015610f9f573d6000803e3d6000fd5b50505050505050565b6040805160018082528183019092526000805160206112778339815191529160009190602080830190803683370190505090508281600081518110610fef57610fef61121c565b60209081029190910101528154604051637d6e912360e11b81526001600160a01b039091169063fadd224690610f71908490600401611232565b600080821561103d5750600160f81b611041565b5060005b600080516020611297833981519152546040516385362ee760e01b8152600080516020611277833981519152916001600160a01b0316906385362ee790610d42908990899087906004016111e8565b6000602082840312156110a257600080fd5b5035919050565b6000602082840312156110bb57600080fd5b81356001600160a01b0381168114610ac457600080fd5b634e487b7160e01b600052601160045260246000fd5b80820180821115610a2057610a206110d2565b60006001820161110d5761110d6110d2565b5060010190565b60208082526014908201527353657373696f6e207374696c6c2061637469766560601b604082015260600190565b6054811061116057634e487b7160e01b600052602160045260246000fd5b9052565b8481526000602060018060a01b038616602084015260806040840152845180608085015260005b818110156111a75786810183015185820160a00152820161118b565b50600060a0828601015260a0601f19601f83011685010192505050610f256060830184611142565b6000602082840312156111e157600080fd5b5051919050565b92835260208301919091526001600160f81b031916604082015260600190565b82815260408101610ac46020830184611142565b634e487b7160e01b600052603260045260246000fd5b6020808252825182820181905260009190848201906040850190845b8181101561126a5783518352928401929184019160010161124e565b5090969550505050505056feed8d60e34876f751cc8b014c560745351147d9de11b9347c854e881b128ea600ed8d60e34876f751cc8b014c560745351147d9de11b9347c854e881b128ea601a2646970667358221220423df3975812f0100bde5d86265f312bece42d1b0168089c996fd70c0d8f5d5b64736f6c63430008180033",
  "linkReferences": {},
  "deployedLinkReferences": {}
}